{
  "contractName": "Auction",
  "abi": [
    {
      "inputs": [
        {
          "internalType": "address",
          "name": "_nft",
          "type": "address"
        },
        {
          "internalType": "uint256",
          "name": "_nftId",
          "type": "uint256"
        }
      ],
      "stateMutability": "nonpayable",
      "type": "constructor"
    },
    {
      "inputs": [
        {
          "internalType": "uint256",
          "name": "currentTime",
          "type": "uint256"
        },
        {
          "internalType": "uint256",
          "name": "auctionEndTime",
          "type": "uint256"
        }
      ],
      "name": "AuctionExpired",
      "type": "error"
    },
    {
      "inputs": [
        {
          "internalType": "uint256",
          "name": "bidAmount",
          "type": "uint256"
        },
        {
          "internalType": "uint256",
          "name": "currentBid",
          "type": "uint256"
        }
      ],
      "name": "InsufficientBidAmount",
      "type": "error"
    },
    {
      "inputs": [
        {
          "internalType": "uint256",
          "name": "bidAmount",
          "type": "uint256"
        },
        {
          "internalType": "uint256",
          "name": "currentBalance",
          "type": "uint256"
        }
      ],
      "name": "InsufficientFunds",
      "type": "error"
    },
    {
      "anonymous": false,
      "inputs": [
        {
          "indexed": false,
          "internalType": "address",
          "name": "sender",
          "type": "address"
        },
        {
          "indexed": false,
          "internalType": "uint256",
          "name": "amount",
          "type": "uint256"
        },
        {
          "indexed": false,
          "internalType": "string",
          "name": "processedBy",
          "type": "string"
        }
      ],
      "name": "AttemptingPaymentThatWillFail",
      "type": "event"
    },
    {
      "anonymous": false,
      "inputs": [
        {
          "indexed": false,
          "internalType": "address",
          "name": "bidder",
          "type": "address"
        },
        {
          "indexed": false,
          "internalType": "uint256",
          "name": "amount",
          "type": "uint256"
        },
        {
          "indexed": false,
          "internalType": "uint256",
          "name": "bidTime",
          "type": "uint256"
        }
      ],
      "name": "BidAccepted",
      "type": "event"
    },
    {
      "anonymous": false,
      "inputs": [
        {
          "indexed": false,
          "internalType": "address",
          "name": "bidder",
          "type": "address"
        },
        {
          "indexed": false,
          "internalType": "uint256",
          "name": "amount",
          "type": "uint256"
        },
        {
          "indexed": false,
          "internalType": "uint256",
          "name": "bidTime",
          "type": "uint256"
        }
      ],
      "name": "BidNotAccepted",
      "type": "event"
    },
    {
      "anonymous": false,
      "inputs": [
        {
          "indexed": false,
          "internalType": "address",
          "name": "winner",
          "type": "address"
        },
        {
          "indexed": false,
          "internalType": "uint256",
          "name": "winningBid",
          "type": "uint256"
        }
      ],
      "name": "End",
      "type": "event"
    },
    {
      "anonymous": false,
      "inputs": [
        {
          "indexed": false,
          "internalType": "address",
          "name": "sender",
          "type": "address"
        },
        {
          "indexed": false,
          "internalType": "uint256",
          "name": "amount",
          "type": "uint256"
        },
        {
          "indexed": false,
          "internalType": "string",
          "name": "processedBy",
          "type": "string"
        }
      ],
      "name": "PaymentReceived",
      "type": "event"
    },
    {
      "anonymous": false,
      "inputs": [
        {
          "indexed": false,
          "internalType": "address",
          "name": "notReturnedTo",
          "type": "address"
        },
        {
          "indexed": false,
          "internalType": "uint256",
          "name": "amount",
          "type": "uint256"
        },
        {
          "indexed": false,
          "internalType": "uint256",
          "name": "notReturnTime",
          "type": "uint256"
        }
      ],
      "name": "PreviousHighBidNotReturned",
      "type": "event"
    },
    {
      "anonymous": false,
      "inputs": [
        {
          "indexed": false,
          "internalType": "address",
          "name": "returnedTo",
          "type": "address"
        },
        {
          "indexed": false,
          "internalType": "uint256",
          "name": "amount",
          "type": "uint256"
        },
        {
          "indexed": false,
          "internalType": "uint256",
          "name": "returnTime",
          "type": "uint256"
        }
      ],
      "name": "PreviousHighBidReturned",
      "type": "event"
    },
    {
      "anonymous": false,
      "inputs": [
        {
          "indexed": false,
          "internalType": "uint256",
          "name": "startingBid",
          "type": "uint256"
        },
        {
          "indexed": false,
          "internalType": "uint256",
          "name": "duration",
          "type": "uint256"
        }
      ],
      "name": "Start",
      "type": "event"
    },
    {
      "stateMutability": "payable",
      "type": "fallback",
      "payable": true
    },
    {
      "inputs": [],
      "name": "auctionActive",
      "outputs": [
        {
          "internalType": "bool",
          "name": "",
          "type": "bool"
        }
      ],
      "stateMutability": "view",
      "type": "function",
      "constant": true
    },
    {
      "inputs": [],
      "name": "auctionEndTime",
      "outputs": [
        {
          "internalType": "uint256",
          "name": "",
          "type": "uint256"
        }
      ],
      "stateMutability": "view",
      "type": "function",
      "constant": true
    },
    {
      "inputs": [
        {
          "internalType": "address",
          "name": "",
          "type": "address"
        }
      ],
      "name": "bidderToBid",
      "outputs": [
        {
          "internalType": "uint256",
          "name": "",
          "type": "uint256"
        }
      ],
      "stateMutability": "view",
      "type": "function",
      "constant": true
    },
    {
      "inputs": [
        {
          "internalType": "uint256",
          "name": "",
          "type": "uint256"
        }
      ],
      "name": "bids",
      "outputs": [
        {
          "internalType": "address",
          "name": "bidder",
          "type": "address"
        },
        {
          "internalType": "uint256",
          "name": "bid",
          "type": "uint256"
        },
        {
          "internalType": "uint256",
          "name": "timeStamp",
          "type": "uint256"
        }
      ],
      "stateMutability": "view",
      "type": "function",
      "constant": true
    },
    {
      "inputs": [],
      "name": "currentBid",
      "outputs": [
        {
          "internalType": "uint256",
          "name": "",
          "type": "uint256"
        }
      ],
      "stateMutability": "view",
      "type": "function",
      "constant": true
    },
    {
      "inputs": [],
      "name": "highestBidder",
      "outputs": [
        {
          "internalType": "address payable",
          "name": "",
          "type": "address"
        }
      ],
      "stateMutability": "view",
      "type": "function",
      "constant": true
    },
    {
      "inputs": [],
      "name": "nft",
      "outputs": [
        {
          "internalType": "contract IERC721",
          "name": "",
          "type": "address"
        }
      ],
      "stateMutability": "view",
      "type": "function",
      "constant": true
    },
    {
      "inputs": [],
      "name": "nftId",
      "outputs": [
        {
          "internalType": "uint256",
          "name": "",
          "type": "uint256"
        }
      ],
      "stateMutability": "view",
      "type": "function",
      "constant": true
    },
    {
      "inputs": [],
      "name": "seller",
      "outputs": [
        {
          "internalType": "address payable",
          "name": "",
          "type": "address"
        }
      ],
      "stateMutability": "view",
      "type": "function",
      "constant": true
    },
    {
      "inputs": [],
      "name": "startingBid",
      "outputs": [
        {
          "internalType": "uint256",
          "name": "",
          "type": "uint256"
        }
      ],
      "stateMutability": "view",
      "type": "function",
      "constant": true
    },
    {
      "stateMutability": "payable",
      "type": "receive",
      "payable": true
    },
    {
      "inputs": [
        {
          "internalType": "uint256",
          "name": "_startingBid",
          "type": "uint256"
        },
        {
          "internalType": "uint256",
          "name": "_auctionDuration",
          "type": "uint256"
        }
      ],
      "name": "start",
      "outputs": [],
      "stateMutability": "nonpayable",
      "type": "function"
    },
    {
      "inputs": [],
      "name": "auctionStatus",
      "outputs": [
        {
          "internalType": "bool",
          "name": "",
          "type": "bool"
        }
      ],
      "stateMutability": "view",
      "type": "function",
      "constant": true
    },
    {
      "inputs": [],
      "name": "bid",
      "outputs": [],
      "stateMutability": "payable",
      "type": "function",
      "payable": true
    },
    {
      "inputs": [],
      "name": "endAuction",
      "outputs": [
        {
          "internalType": "address",
          "name": "_winner",
          "type": "address"
        },
        {
          "internalType": "uint256",
          "name": "_winningBid",
          "type": "uint256"
        }
      ],
      "stateMutability": "nonpayable",
      "type": "function"
    },
    {
      "inputs": [],
      "name": "listBids",
      "outputs": [
        {
          "components": [
            {
              "internalType": "address",
              "name": "bidder",
              "type": "address"
            },
            {
              "internalType": "uint256",
              "name": "bid",
              "type": "uint256"
            },
            {
              "internalType": "uint256",
              "name": "timeStamp",
              "type": "uint256"
            }
          ],
          "internalType": "struct Auction.Bid[]",
          "name": "",
          "type": "tuple[]"
        }
      ],
      "stateMutability": "view",
      "type": "function",
      "constant": true
    },
    {
      "inputs": [],
      "name": "senderBalance",
      "outputs": [
        {
          "internalType": "uint256",
          "name": "",
          "type": "uint256"
        }
      ],
      "stateMutability": "view",
      "type": "function",
      "constant": true
    },
    {
      "inputs": [],
      "name": "contractBalance",
      "outputs": [
        {
          "internalType": "uint256",
          "name": "",
          "type": "uint256"
        }
      ],
      "stateMutability": "view",
      "type": "function",
      "constant": true
    },
    {
      "inputs": [],
      "name": "auctionTimeRemaining",
      "outputs": [
        {
          "internalType": "uint256",
          "name": "_auctionTimeRemaining",
          "type": "uint256"
        },
        {
          "internalType": "bool",
          "name": "_auctionActive",
          "type": "bool"
        }
      ],
      "stateMutability": "view",
      "type": "function",
      "constant": true
    }
  ],
  "bytecode": "0x60c06040523480156200001157600080fd5b5060405162001ab238038062001ab2833981810160405281019062000037919062000160565b8173ffffffffffffffffffffffffffffffffffffffff1660808173ffffffffffffffffffffffffffffffffffffffff16815250508060a08181525050336000806101000a81548173ffffffffffffffffffffffffffffffffffffffff021916908373ffffffffffffffffffffffffffffffffffffffff1602179055505050620001a7565b600080fd5b600073ffffffffffffffffffffffffffffffffffffffff82169050919050565b6000620000ed82620000c0565b9050919050565b620000ff81620000e0565b81146200010b57600080fd5b50565b6000815190506200011f81620000f4565b92915050565b6000819050919050565b6200013a8162000125565b81146200014657600080fd5b50565b6000815190506200015a816200012f565b92915050565b600080604083850312156200017a5762000179620000bb565b5b60006200018a858286016200010e565b92505060206200019d8582860162000149565b9150509250929050565b60805160a0516118d7620001db60003960008181610aed0152610d740152600081816108d60152610d1401526118d76000f3fe60806040526004361061010d5760003560e01c80639222800611610095578063c6bc518211610064578063c6bc518214610472578063def181011461049d578063f13c4223146104c8578063f50a7902146104f3578063fe67a54b1461051f576101a9565b806392228006146103b45780639d6a0f28146103df578063ac3df3301461040a578063b9fdd56914610447576101a9565b80634b449cba116100dc5780634b449cba146102df5780638b7afe2e1461030a5780638ce671ec146103355780638fb4b5731461036057806391f9015714610389576101a9565b806308551a53146102405780631998aeef1461026b5780634423c5f11461027557806347ccca02146102b4576101a9565b366101a9573334343373ffffffffffffffffffffffffffffffffffffffff1631101561016e576040517f08c379a0000000000000000000000000000000000000000000000000000000008152600401610165906110e1565b60405180910390fd5b7f8dfc1109af223bb7f4e48f38a8a7631f492f0106b90747a651bf181b0fc4e402333460405161019f9291906111a7565b60405180910390a1005b3334343373ffffffffffffffffffffffffffffffffffffffff16311015610205576040517f08c379a00000000000000000000000000000000000000000000000000000000081526004016101fc906110e1565b60405180910390fd5b7f8dfc1109af223bb7f4e48f38a8a7631f492f0106b90747a651bf181b0fc4e402333460405161023692919061122f565b60405180910390a1005b34801561024c57600080fd5b5061025561054b565b604051610262919061128c565b60405180910390f35b61027361056f565b005b34801561028157600080fd5b5061029c600480360381019061029791906112d8565b61087a565b6040516102ab93929190611305565b60405180910390f35b3480156102c057600080fd5b506102c96108d4565b6040516102d6919061139b565b60405180910390f35b3480156102eb57600080fd5b506102f46108f8565b60405161030191906113b6565b60405180910390f35b34801561031657600080fd5b5061031f6108fe565b60405161032c91906113b6565b60405180910390f35b34801561034157600080fd5b5061034a610906565b60405161035791906113b6565b60405180910390f35b34801561036c57600080fd5b50610387600480360381019061038291906113d1565b610925565b005b34801561039557600080fd5b5061039e610a7d565b6040516103ab919061128c565b60405180910390f35b3480156103c057600080fd5b506103c9610aa3565b6040516103d6919061142c565b60405180910390f35b3480156103eb57600080fd5b506103f4610ab6565b604051610401919061142c565b60405180910390f35b34801561041657600080fd5b50610431600480360381019061042c9190611473565b610acd565b60405161043e91906113b6565b60405180910390f35b34801561045357600080fd5b5061045c610ae5565b60405161046991906113b6565b60405180910390f35b34801561047e57600080fd5b50610487610aeb565b60405161049491906113b6565b60405180910390f35b3480156104a957600080fd5b506104b2610b0f565b6040516104bf91906113b6565b60405180910390f35b3480156104d457600080fd5b506104dd610b15565b6040516104ea91906115af565b60405180910390f35b3480156104ff57600080fd5b50610508610bde565b6040516105169291906115d1565b60405180910390f35b34801561052b57600080fd5b50610534610c17565b6040516105429291906115fa565b60405180910390f35b60008054906101000a900473ffffffffffffffffffffffffffffffffffffffff1681565b600460149054906101000a900460ff166105be576040517f08c379a00000000000000000000000000000000000000000000000000000000081526004016105b59061166f565b60405180910390fd5b600034905060035442111561060e57426003546040517f950a642d00000000000000000000000000000000000000000000000000000000815260040161060592919061168f565b60405180910390fd5b600254811161065857806002546040517f201521eb00000000000000000000000000000000000000000000000000000000815260040161064f92919061168f565b60405180910390fd5b6106e5600460009054906101000a900473ffffffffffffffffffffffffffffffffffffffff1660056000600460009054906101000a900473ffffffffffffffffffffffffffffffffffffffff1673ffffffffffffffffffffffffffffffffffffffff1673ffffffffffffffffffffffffffffffffffffffff16815260200190815260200160002054610ea5565b8060028190555033600460006101000a81548173ffffffffffffffffffffffffffffffffffffffff021916908373ffffffffffffffffffffffffffffffffffffffff16021790555080600560003373ffffffffffffffffffffffffffffffffffffffff1673ffffffffffffffffffffffffffffffffffffffff168152602001908152602001600020600082825461077c91906116e7565b92505081905550600660405180606001604052803373ffffffffffffffffffffffffffffffffffffffff16815260200183815260200142815250908060018154018082558091505060019003906000526020600020906003020160009091909190915060008201518160000160006101000a81548173ffffffffffffffffffffffffffffffffffffffff021916908373ffffffffffffffffffffffffffffffffffffffff160217905550602082015181600101556040820151816002015550507f90c92f2d4052ed516f2beb1265c36e62af39eb7aaa59cb7595335ce67dc8b96c33824260405161086f93929190611305565b60405180910390a150565b6006818154811061088a57600080fd5b90600052602060002090600302016000915090508060000160009054906101000a900473ffffffffffffffffffffffffffffffffffffffff16908060010154908060020154905083565b7f000000000000000000000000000000000000000000000000000000000000000081565b60035481565b600047905090565b60003373ffffffffffffffffffffffffffffffffffffffff1631905090565b60008054906101000a900473ffffffffffffffffffffffffffffffffffffffff1673ffffffffffffffffffffffffffffffffffffffff163373ffffffffffffffffffffffffffffffffffffffff16146109b3576040517f08c379a00000000000000000000000000000000000000000000000000000000081526004016109aa90611789565b60405180910390fd5b600460149054906101000a900460ff1615610a03576040517f08c379a00000000000000000000000000000000000000000000000000000000081526004016109fa906117f5565b60405180910390fd5b6001600460146101000a81548160ff0219169083151502179055508042610a2a91906116e7565b60038190555081600181905550816002819055507f5a7d5f50ab70a39d193bf53f0fb995377776df93bb6fdcf1cd1868b7e0dd44ee60015482604051610a7192919061168f565b60405180910390a15050565b600460009054906101000a900473ffffffffffffffffffffffffffffffffffffffff1681565b600460149054906101000a900460ff1681565b6000600460149054906101000a900460ff16905090565b60056020528060005260406000206000915090505481565b60015481565b7f000000000000000000000000000000000000000000000000000000000000000081565b60025481565b60606006805480602002602001604051908101604052809291908181526020016000905b82821015610bd557838290600052602060002090600302016040518060600160405290816000820160009054906101000a900473ffffffffffffffffffffffffffffffffffffffff1673ffffffffffffffffffffffffffffffffffffffff1673ffffffffffffffffffffffffffffffffffffffff1681526020016001820154815260200160028201548152505081526020019060010190610b39565b50505050905090565b6000806000429050806003541115610c095780600354610bfe9190611815565b925060019150610c12565b60009250600091505b509091565b60008060008054906101000a900473ffffffffffffffffffffffffffffffffffffffff1673ffffffffffffffffffffffffffffffffffffffff163373ffffffffffffffffffffffffffffffffffffffff1614610ca8576040517f08c379a0000000000000000000000000000000000000000000000000000000008152600401610c9f90611789565b60405180910390fd5b600460149054906101000a900460ff16610cf7576040517f08c379a0000000000000000000000000000000000000000000000000000000008152600401610cee9061166f565b60405180910390fd5b6000600460146101000a81548160ff0219169083151502179055507f000000000000000000000000000000000000000000000000000000000000000073ffffffffffffffffffffffffffffffffffffffff166323b872dd33600460009054906101000a900473ffffffffffffffffffffffffffffffffffffffff167f00000000000000000000000000000000000000000000000000000000000000006040518463ffffffff1660e01b8152600401610db19392919061186a565b600060405180830381600087803b158015610dcb57600080fd5b505af1158015610ddf573d6000803e3d6000fd5b5050505060008060009054906101000a900473ffffffffffffffffffffffffffffffffffffffff1673ffffffffffffffffffffffffffffffffffffffff166108fc479081150290604051600060405180830381858888f193505050509050600460009054906101000a900473ffffffffffffffffffffffffffffffffffffffff16925060025491507f7d7570b046e5ead3a4f3fbc9fa2445113625a1e79823776146316bafed6b8cc58383604051610e989291906115fa565b60405180910390a1509091565b600073ffffffffffffffffffffffffffffffffffffffff16600460009054906101000a900473ffffffffffffffffffffffffffffffffffffffff1673ffffffffffffffffffffffffffffffffffffffff1614158015610f43575080600560008473ffffffffffffffffffffffffffffffffffffffff1673ffffffffffffffffffffffffffffffffffffffff1681526020019081526020016000205410155b1561105a5760008273ffffffffffffffffffffffffffffffffffffffff166108fc839081150290604051600060405180830381858888f19350505050905080610fc6577fe32fb999a42c3de2cd8191f811ee8906f0e8bee3927ce7a3a57fb4d2d41fdb3d838342604051610fb993929190611305565b60405180910390a1611058565b81600560008573ffffffffffffffffffffffffffffffffffffffff1673ffffffffffffffffffffffffffffffffffffffff16815260200190815260200160002060008282546110159190611815565b925050819055507fa5f30d2ac1737aba1a44dcda492ee498158645a1ef8501d502431f911a9a545383834260405161104f93929190611305565b60405180910390a15b505b5050565b600082825260208201905092915050565b7f5061796d656e742072656a656374656420666f72206c61636b206f662062616c60008201527f616e636500000000000000000000000000000000000000000000000000000000602082015250565b60006110cb60248361105e565b91506110d68261106f565b604082019050919050565b600060208201905081810360008301526110fa816110be565b9050919050565b600073ffffffffffffffffffffffffffffffffffffffff82169050919050565b600061112c82611101565b9050919050565b61113c81611121565b82525050565b6000819050919050565b61115581611142565b82525050565b7f726563656976652066756e6374696f6e00000000000000000000000000000000600082015250565b600061119160108361105e565b915061119c8261115b565b602082019050919050565b60006060820190506111bc6000830185611133565b6111c9602083018461114c565b81810360408301526111da81611184565b90509392505050565b7f66616c6c6261636b2066756e6374696f6e000000000000000000000000000000600082015250565b600061121960118361105e565b9150611224826111e3565b602082019050919050565b60006060820190506112446000830185611133565b611251602083018461114c565b81810360408301526112628161120c565b90509392505050565b600061127682611101565b9050919050565b6112868161126b565b82525050565b60006020820190506112a1600083018461127d565b92915050565b600080fd5b6112b581611142565b81146112c057600080fd5b50565b6000813590506112d2816112ac565b92915050565b6000602082840312156112ee576112ed6112a7565b5b60006112fc848285016112c3565b91505092915050565b600060608201905061131a6000830186611133565b611327602083018561114c565b611334604083018461114c565b949350505050565b6000819050919050565b600061136161135c61135784611101565b61133c565b611101565b9050919050565b600061137382611346565b9050919050565b600061138582611368565b9050919050565b6113958161137a565b82525050565b60006020820190506113b0600083018461138c565b92915050565b60006020820190506113cb600083018461114c565b92915050565b600080604083850312156113e8576113e76112a7565b5b60006113f6858286016112c3565b9250506020611407858286016112c3565b9150509250929050565b60008115159050919050565b61142681611411565b82525050565b6000602082019050611441600083018461141d565b92915050565b61145081611121565b811461145b57600080fd5b50565b60008135905061146d81611447565b92915050565b600060208284031215611489576114886112a7565b5b60006114978482850161145e565b91505092915050565b600081519050919050565b600082825260208201905092915050565b6000819050602082019050919050565b6114d581611121565b82525050565b6114e481611142565b82525050565b60608201600082015161150060008501826114cc565b50602082015161151360208501826114db565b50604082015161152660408501826114db565b50505050565b600061153883836114ea565b60608301905092915050565b6000602082019050919050565b600061155c826114a0565b61156681856114ab565b9350611571836114bc565b8060005b838110156115a2578151611589888261152c565b975061159483611544565b925050600181019050611575565b5085935050505092915050565b600060208201905081810360008301526115c98184611551565b905092915050565b60006040820190506115e6600083018561114c565b6115f3602083018461141d565b9392505050565b600060408201905061160f6000830185611133565b61161c602083018461114c565b9392505050565b7f41756374696f6e2068617320656e646564000000000000000000000000000000600082015250565b600061165960118361105e565b915061166482611623565b602082019050919050565b600060208201905081810360008301526116888161164c565b9050919050565b60006040820190506116a4600083018561114c565b6116b1602083018461114c565b9392505050565b7f4e487b7100000000000000000000000000000000000000000000000000000000600052601160045260246000fd5b60006116f282611142565b91506116fd83611142565b9250827fffffffffffffffffffffffffffffffffffffffffffffffffffffffffffffffff03821115611732576117316116b8565b5b828201905092915050565b7f4e6f742073656c6c657200000000000000000000000000000000000000000000600082015250565b6000611773600a8361105e565b915061177e8261173d565b602082019050919050565b600060208201905081810360008301526117a281611766565b9050919050565b7f416c726561647920537461727465640000000000000000000000000000000000600082015250565b60006117df600f8361105e565b91506117ea826117a9565b602082019050919050565b6000602082019050818103600083015261180e816117d2565b9050919050565b600061182082611142565b915061182b83611142565b92508282101561183e5761183d6116b8565b5b828203905092915050565b600061185482611368565b9050919050565b61186481611849565b82525050565b600060608201905061187f6000830186611133565b61188c602083018561185b565b611899604083018461114c565b94935050505056fea26469706673582212209db6bf8ebdd7a15f2fe9ae10dad4c9c9c20d06782a7a0b73fd534e6c7e357cac64736f6c634300080f0033",
  "immutableReferences": {
    "14": [
      {
        "length": 32,
        "start": 2262
      },
      {
        "length": 32,
        "start": 3348
      }
    ],
    "16": [
      {
        "length": 32,
        "start": 2797
      },
      {
        "length": 32,
        "start": 3444
      }
    ]
  },
  "source": "// SPDX-License-Identifier: MIT\npragma solidity 0.8.15;\n\ninterface IERC721 {\n    function transferFrom(\n        address from,\n        address to,\n        uint256 nftId\n    ) external;\n}\n\ncontract Auction {\n    IERC721 public immutable nft;\n    uint256 public immutable nftId;\n\n    address payable public seller;\n    uint256 public startingBid;\n    uint256 public currentBid;\n    uint256 public auctionEndTime;\n    address payable public highestBidder;\n    bool public auctionActive;\n\n    mapping(address => uint256) public bidderToBid;\n\n    Bid[] public bids;\n\n    struct Bid {\n        address bidder;\n        uint256 bid;\n        uint256 timeStamp;\n    }\n\n    error InsufficientBidAmount(uint256 bidAmount, uint256 currentBid);\n    error AuctionExpired(uint256 currentTime, uint256 auctionEndTime);\n    error InsufficientFunds(uint256 bidAmount, uint256 currentBalance);\n\n    event Start(uint256 startingBid, uint256 duration);\n    event BidAccepted(address bidder, uint256 amount, uint256 bidTime);\n    event BidNotAccepted(address bidder, uint256 amount, uint256 bidTime);\n\n    event PreviousHighBidReturned(\n        address returnedTo,\n        uint256 amount,\n        uint256 returnTime\n    );\n    event PreviousHighBidNotReturned(\n        address notReturnedTo,\n        uint256 amount,\n        uint256 notReturnTime\n    );\n\n    event PaymentReceived(address sender, uint256 amount, string processedBy);\n\n    event AttemptingPaymentThatWillFail(\n        address sender,\n        uint256 amount,\n        string processedBy\n    );\n    event End(address winner, uint256 winningBid);\n\n    modifier onlySeller() {\n        require(msg.sender == seller, \"Not seller\");\n        _;\n    }\n\n    modifier onlySufficientBalance(address _sender, uint256 _amount) {\n        require(\n            msg.sender.balance >= msg.value,\n            \"Payment rejected for lack of balance\"\n        );\n        _;\n    }\n    modifier onlyAuctionActive() {\n        require(auctionActive, \"Auction has ended\");\n        _;\n    }\n\n    constructor(address _nft, uint256 _nftId) {\n        nft = IERC721(_nft);\n        nftId = _nftId;\n\n        seller = payable(msg.sender);\n    }\n\n    function start(uint256 _startingBid, uint256 _auctionDuration)\n        external\n        onlySeller\n    {\n        require(!auctionActive, \"Already Started\");\n\n        auctionActive = true;\n        auctionEndTime = block.timestamp + _auctionDuration;\n        startingBid = _startingBid;\n        currentBid = _startingBid;\n\n        emit Start(startingBid, _auctionDuration);\n    }\n\n    function auctionStatus() external view returns (bool) {\n        return auctionActive;\n    }\n\n    /* \n        @dev \n            receive bid amount provided \n                bid is > current bid\n                auction has not ended\n    */\n    function bid() external payable onlyAuctionActive {\n        uint256 _bidAmount = msg.value;\n\n        if (!(block.timestamp <= auctionEndTime)) {\n            revert AuctionExpired({\n                currentTime: block.timestamp,\n                auctionEndTime: auctionEndTime\n            });\n        }\n\n        if (!(_bidAmount > currentBid)) {\n            revert InsufficientBidAmount({\n                bidAmount: _bidAmount,\n                currentBid: currentBid\n            });\n        }\n\n        // Reduce prior bid liability immediately\n        _returnPreviousHighBid(highestBidder, bidderToBid[highestBidder]);\n\n        // Bid accepted\n        currentBid = _bidAmount;\n        highestBidder = payable(msg.sender);\n\n        // Add to mapping\n        bidderToBid[msg.sender] += _bidAmount;\n\n        // Add to array as Struct\n        bids.push(Bid(msg.sender, _bidAmount, block.timestamp));\n\n        emit BidAccepted(msg.sender, _bidAmount, block.timestamp);\n    }\n\n    function _returnPreviousHighBid(address _priorBidder, uint256 _priorBidAmount)\n        internal\n    {\n        // Send back previous bids to previous highest bidder if not address(0)\n        if (\n            highestBidder != address(0) &&\n            bidderToBid[_priorBidder] >= _priorBidAmount\n        ) {\n            // Todo: should protect against reentrancy!!\n            bool success = payable(_priorBidder).send(_priorBidAmount);\n            if (!success) {\n                // Do not reduce liability of the auction contract\n                emit PreviousHighBidNotReturned(\n                    _priorBidder,\n                    _priorBidAmount,\n                    block.timestamp\n                );\n            } else {\n                // Reduce liability of the auction contract\n                bidderToBid[_priorBidder] -= _priorBidAmount; // reduce bid liability (s/b zero after)\n                emit PreviousHighBidReturned(\n                    _priorBidder,\n                    _priorBidAmount,\n                    block.timestamp\n                );\n            }\n        }\n    }\n\n    function endAuction()\n        external\n        onlySeller\n        onlyAuctionActive\n        returns (address _winner, uint256 _winningBid)\n    {\n        auctionActive = false;\n        // _returnLosingBids(); no longer needed\n\n        // Transfer token ownership to winning bid\n        nft.transferFrom(msg.sender, highestBidder, nftId);\n\n        // Transfer funds to seller\n        bool success = payable(seller).send(address(this).balance);\n\n        _winner = highestBidder;\n        _winningBid = currentBid;\n\n        emit End(_winner, _winningBid);\n    }\n\n    function _returnLosingBids() internal returns (bool) {\n        for (uint256 i = 0; i < bids.length; i++) {\n            Bid storage _bid = bids[i];\n            if (_bid.bidder != highestBidder) {\n                bool successfulSend = payable(_bid.bidder).send(_bid.bid);\n                if (successfulSend) {\n                    // Reduce amount bid by this address\n                    bidderToBid[_bid.bidder] -= _bid.bid;\n\n                    // Delete mapping if address contains 0 balance\n                    if (bidderToBid[_bid.bidder] == 0) {\n                        delete bidderToBid[_bid.bidder];\n                        // Code to remove struct from array if it no longer valuable\n                        // TBD, as it may be valuable for historical and reporting purposes\n                        delete bids[i];\n                    }\n                }\n            }\n        }\n        return true;\n    }\n\n    function listBids() external view returns(Bid[] memory) {\n        return bids;\n    }\n\n    function senderBalance() external view returns (uint256) {\n        return msg.sender.balance;\n    }\n\n    function contractBalance() external view returns (uint256) {\n        return address(this).balance;\n    }\n\n    function auctionTimeRemaining()\n        external\n        view\n        returns (uint256 _auctionTimeRemaining, bool _auctionActive)\n    {\n        uint256 _currentTime = block.timestamp;\n        if (auctionEndTime > _currentTime) {\n            _auctionTimeRemaining = auctionEndTime - _currentTime;\n            _auctionActive = true;\n        } else {\n            _auctionTimeRemaining = 0;\n            _auctionActive = false;\n        }\n        return (_auctionTimeRemaining, _auctionActive);\n    }\n\n    receive() external payable onlySufficientBalance(msg.sender, msg.value) {\n        emit PaymentReceived(msg.sender, msg.value, \"receive function\");\n    }\n\n    fallback() external payable onlySufficientBalance(msg.sender, msg.value) {\n        emit PaymentReceived(msg.sender, msg.value, \"fallback function\");\n    }\n}\n",
  "sourcePath": "/home/rick/projects/blockchain/ethereum/solidity-auction/contracts/Auction.sol",
  "compiler": {
    "name": "solc",
    "version": "0.8.15+commit.e14f2714.Emscripten.clang"
  },
  "schemaVersion": "3.4.7",
  "updatedAt": "2022-07-27T23:14:12.688Z",
  "networkType": "ethereum",
  "devdoc": {
    "kind": "dev",
    "methods": {},
    "version": 1
  },
  "userdoc": {
    "kind": "user",
    "methods": {},
    "version": 1
  }
}