{
  "contractName": "Auction",
  "abi": [
    {
      "inputs": [
        {
          "internalType": "address",
          "name": "_nft",
          "type": "address"
        },
        {
          "internalType": "uint256",
          "name": "_nftId",
          "type": "uint256"
        }
      ],
      "stateMutability": "nonpayable",
      "type": "constructor"
    },
    {
      "inputs": [
        {
          "internalType": "uint256",
          "name": "currentTime",
          "type": "uint256"
        },
        {
          "internalType": "uint256",
          "name": "auctionEndTime",
          "type": "uint256"
        }
      ],
      "name": "AuctionExpired",
      "type": "error"
    },
    {
      "inputs": [
        {
          "internalType": "uint256",
          "name": "bidAmount",
          "type": "uint256"
        },
        {
          "internalType": "uint256",
          "name": "currentBid",
          "type": "uint256"
        }
      ],
      "name": "InsufficientBidAmount",
      "type": "error"
    },
    {
      "inputs": [
        {
          "internalType": "uint256",
          "name": "bidAmount",
          "type": "uint256"
        },
        {
          "internalType": "uint256",
          "name": "currentBalance",
          "type": "uint256"
        }
      ],
      "name": "InsufficientFunds",
      "type": "error"
    },
    {
      "anonymous": false,
      "inputs": [
        {
          "indexed": false,
          "internalType": "address",
          "name": "sender",
          "type": "address"
        },
        {
          "indexed": false,
          "internalType": "uint256",
          "name": "amount",
          "type": "uint256"
        },
        {
          "indexed": false,
          "internalType": "string",
          "name": "processedBy",
          "type": "string"
        }
      ],
      "name": "AttemptingPaymentThatWillFail",
      "type": "event"
    },
    {
      "anonymous": false,
      "inputs": [
        {
          "indexed": false,
          "internalType": "address",
          "name": "bidder",
          "type": "address"
        },
        {
          "indexed": false,
          "internalType": "uint256",
          "name": "amount",
          "type": "uint256"
        },
        {
          "indexed": false,
          "internalType": "uint256",
          "name": "bidTime",
          "type": "uint256"
        }
      ],
      "name": "BidAccepted",
      "type": "event"
    },
    {
      "anonymous": false,
      "inputs": [
        {
          "indexed": false,
          "internalType": "address",
          "name": "bidder",
          "type": "address"
        },
        {
          "indexed": false,
          "internalType": "uint256",
          "name": "amount",
          "type": "uint256"
        },
        {
          "indexed": false,
          "internalType": "uint256",
          "name": "bidTime",
          "type": "uint256"
        }
      ],
      "name": "BidNotAccepted",
      "type": "event"
    },
    {
      "anonymous": false,
      "inputs": [
        {
          "indexed": false,
          "internalType": "address",
          "name": "winner",
          "type": "address"
        },
        {
          "indexed": false,
          "internalType": "uint256",
          "name": "winningBid",
          "type": "uint256"
        }
      ],
      "name": "End",
      "type": "event"
    },
    {
      "anonymous": false,
      "inputs": [
        {
          "indexed": false,
          "internalType": "address",
          "name": "notReturnedTo",
          "type": "address"
        },
        {
          "indexed": false,
          "internalType": "uint256",
          "name": "amount",
          "type": "uint256"
        },
        {
          "indexed": false,
          "internalType": "uint256",
          "name": "notReturnTime",
          "type": "uint256"
        }
      ],
      "name": "LosingBidNotReturned",
      "type": "event"
    },
    {
      "anonymous": false,
      "inputs": [
        {
          "indexed": false,
          "internalType": "address",
          "name": "returnedTo",
          "type": "address"
        },
        {
          "indexed": false,
          "internalType": "uint256",
          "name": "amount",
          "type": "uint256"
        },
        {
          "indexed": false,
          "internalType": "uint256",
          "name": "returnTime",
          "type": "uint256"
        }
      ],
      "name": "LosingBidReturned",
      "type": "event"
    },
    {
      "anonymous": false,
      "inputs": [
        {
          "indexed": false,
          "internalType": "address",
          "name": "sender",
          "type": "address"
        },
        {
          "indexed": false,
          "internalType": "uint256",
          "name": "amount",
          "type": "uint256"
        },
        {
          "indexed": false,
          "internalType": "string",
          "name": "processedBy",
          "type": "string"
        }
      ],
      "name": "PaymentReceived",
      "type": "event"
    },
    {
      "anonymous": false,
      "inputs": [
        {
          "indexed": false,
          "internalType": "uint256",
          "name": "startingBid",
          "type": "uint256"
        },
        {
          "indexed": false,
          "internalType": "uint256",
          "name": "duration",
          "type": "uint256"
        }
      ],
      "name": "Start",
      "type": "event"
    },
    {
      "stateMutability": "payable",
      "type": "fallback",
      "payable": true
    },
    {
      "inputs": [],
      "name": "auctionActive",
      "outputs": [
        {
          "internalType": "bool",
          "name": "",
          "type": "bool"
        }
      ],
      "stateMutability": "view",
      "type": "function",
      "constant": true
    },
    {
      "inputs": [],
      "name": "auctionEndTime",
      "outputs": [
        {
          "internalType": "uint256",
          "name": "",
          "type": "uint256"
        }
      ],
      "stateMutability": "view",
      "type": "function",
      "constant": true
    },
    {
      "inputs": [
        {
          "internalType": "address",
          "name": "",
          "type": "address"
        }
      ],
      "name": "bidderToBid",
      "outputs": [
        {
          "internalType": "uint256",
          "name": "",
          "type": "uint256"
        }
      ],
      "stateMutability": "view",
      "type": "function",
      "constant": true
    },
    {
      "inputs": [
        {
          "internalType": "uint256",
          "name": "",
          "type": "uint256"
        }
      ],
      "name": "bids",
      "outputs": [
        {
          "internalType": "address",
          "name": "bidder",
          "type": "address"
        },
        {
          "internalType": "uint256",
          "name": "bid",
          "type": "uint256"
        }
      ],
      "stateMutability": "view",
      "type": "function",
      "constant": true
    },
    {
      "inputs": [],
      "name": "currentBid",
      "outputs": [
        {
          "internalType": "uint256",
          "name": "",
          "type": "uint256"
        }
      ],
      "stateMutability": "view",
      "type": "function",
      "constant": true
    },
    {
      "inputs": [],
      "name": "highestBidder",
      "outputs": [
        {
          "internalType": "address payable",
          "name": "",
          "type": "address"
        }
      ],
      "stateMutability": "view",
      "type": "function",
      "constant": true
    },
    {
      "inputs": [],
      "name": "nft",
      "outputs": [
        {
          "internalType": "contract IERC721",
          "name": "",
          "type": "address"
        }
      ],
      "stateMutability": "view",
      "type": "function",
      "constant": true
    },
    {
      "inputs": [],
      "name": "nftId",
      "outputs": [
        {
          "internalType": "uint256",
          "name": "",
          "type": "uint256"
        }
      ],
      "stateMutability": "view",
      "type": "function",
      "constant": true
    },
    {
      "inputs": [],
      "name": "seller",
      "outputs": [
        {
          "internalType": "address payable",
          "name": "",
          "type": "address"
        }
      ],
      "stateMutability": "view",
      "type": "function",
      "constant": true
    },
    {
      "inputs": [],
      "name": "startingBid",
      "outputs": [
        {
          "internalType": "uint256",
          "name": "",
          "type": "uint256"
        }
      ],
      "stateMutability": "view",
      "type": "function",
      "constant": true
    },
    {
      "stateMutability": "payable",
      "type": "receive",
      "payable": true
    },
    {
      "inputs": [
        {
          "internalType": "uint256",
          "name": "_startingBid",
          "type": "uint256"
        },
        {
          "internalType": "uint256",
          "name": "_auctionDuration",
          "type": "uint256"
        }
      ],
      "name": "start",
      "outputs": [],
      "stateMutability": "nonpayable",
      "type": "function"
    },
    {
      "inputs": [],
      "name": "auctionStatus",
      "outputs": [
        {
          "internalType": "bool",
          "name": "",
          "type": "bool"
        }
      ],
      "stateMutability": "view",
      "type": "function",
      "constant": true
    },
    {
      "inputs": [],
      "name": "bid",
      "outputs": [],
      "stateMutability": "payable",
      "type": "function",
      "payable": true
    },
    {
      "inputs": [],
      "name": "endBid",
      "outputs": [
        {
          "internalType": "address",
          "name": "_winner",
          "type": "address"
        },
        {
          "internalType": "uint256",
          "name": "_winningBid",
          "type": "uint256"
        }
      ],
      "stateMutability": "nonpayable",
      "type": "function"
    },
    {
      "inputs": [],
      "name": "senderBalance",
      "outputs": [
        {
          "internalType": "uint256",
          "name": "",
          "type": "uint256"
        }
      ],
      "stateMutability": "view",
      "type": "function",
      "constant": true
    },
    {
      "inputs": [],
      "name": "contractBalance",
      "outputs": [
        {
          "internalType": "uint256",
          "name": "",
          "type": "uint256"
        }
      ],
      "stateMutability": "view",
      "type": "function",
      "constant": true
    },
    {
      "inputs": [],
      "name": "auctionTimeRemaining",
      "outputs": [
        {
          "internalType": "uint256",
          "name": "_auctionTimeRemaining",
          "type": "uint256"
        },
        {
          "internalType": "bool",
          "name": "_auctionActive",
          "type": "bool"
        }
      ],
      "stateMutability": "view",
      "type": "function",
      "constant": true
    }
  ],
  "bytecode": "0x60c06040523480156200001157600080fd5b5060405162001b6d38038062001b6d833981810160405281019062000037919062000160565b8173ffffffffffffffffffffffffffffffffffffffff1660808173ffffffffffffffffffffffffffffffffffffffff16815250508060a08181525050336000806101000a81548173ffffffffffffffffffffffffffffffffffffffff021916908373ffffffffffffffffffffffffffffffffffffffff1602179055505050620001a7565b600080fd5b600073ffffffffffffffffffffffffffffffffffffffff82169050919050565b6000620000ed82620000c0565b9050919050565b620000ff81620000e0565b81146200010b57600080fd5b50565b6000815190506200011f81620000f4565b92915050565b6000819050919050565b6200013a8162000125565b81146200014657600080fd5b50565b6000815190506200015a816200012f565b92915050565b600080604083850312156200017a5762000179620000bb565b5b60006200018a858286016200010e565b92505060206200019d8582860162000149565b9150509250929050565b60805160a051611992620001db60003960008181610bbc0152610cda0152600081816108890152610b5e01526119926000f3fe6080604052600436106101025760003560e01c80638fb4b57311610095578063ac3df33011610064578063ac3df3301461042a578063b9fdd56914610467578063c6bc518214610492578063def18101146104bd578063f50a7902146104e85761019e565b80638fb4b5731461038057806391f90157146103a957806392228006146103d45780639d6a0f28146103ff5761019e565b80634b449cba116100d15780634b449cba146102d35780638b7afe2e146102fe5780638bae720b146103295780638ce671ec146103555761019e565b806308551a53146102355780631998aeef146102605780634423c5f11461026a57806347ccca02146102a85761019e565b3661019e573334343373ffffffffffffffffffffffffffffffffffffffff16311015610163576040517f08c379a000000000000000000000000000000000000000000000000000000000815260040161015a90611256565b60405180910390fd5b7f8dfc1109af223bb7f4e48f38a8a7631f492f0106b90747a651bf181b0fc4e402333460405161019492919061131c565b60405180910390a1005b3334343373ffffffffffffffffffffffffffffffffffffffff163110156101fa576040517f08c379a00000000000000000000000000000000000000000000000000000000081526004016101f190611256565b60405180910390fd5b7f8dfc1109af223bb7f4e48f38a8a7631f492f0106b90747a651bf181b0fc4e402333460405161022b9291906113a4565b60405180910390a1005b34801561024157600080fd5b5061024a610514565b6040516102579190611401565b60405180910390f35b610268610538565b005b34801561027657600080fd5b50610291600480360381019061028c919061144d565b610833565b60405161029f92919061147a565b60405180910390f35b3480156102b457600080fd5b506102bd610887565b6040516102ca9190611502565b60405180910390f35b3480156102df57600080fd5b506102e86108ab565b6040516102f5919061151d565b60405180910390f35b34801561030a57600080fd5b506103136108b1565b604051610320919061151d565b60405180910390f35b34801561033557600080fd5b5061033e6108b9565b60405161034c92919061147a565b60405180910390f35b34801561036157600080fd5b5061036a610a24565b604051610377919061151d565b60405180910390f35b34801561038c57600080fd5b506103a760048036038101906103a29190611538565b610a43565b005b3480156103b557600080fd5b506103be610c6a565b6040516103cb9190611401565b60405180910390f35b3480156103e057600080fd5b506103e9610c90565b6040516103f69190611593565b60405180910390f35b34801561040b57600080fd5b50610414610ca3565b6040516104219190611593565b60405180910390f35b34801561043657600080fd5b50610451600480360381019061044c91906115da565b610cba565b60405161045e919061151d565b60405180910390f35b34801561047357600080fd5b5061047c610cd2565b604051610489919061151d565b60405180910390f35b34801561049e57600080fd5b506104a7610cd8565b6040516104b4919061151d565b60405180910390f35b3480156104c957600080fd5b506104d2610cfc565b6040516104df919061151d565b60405180910390f35b3480156104f457600080fd5b506104fd610d02565b60405161050b929190611607565b60405180910390f35b60008054906101000a900473ffffffffffffffffffffffffffffffffffffffff1681565b600460149054906101000a900460ff16610587576040517f08c379a000000000000000000000000000000000000000000000000000000000815260040161057e9061167c565b60405180910390fd5b60003490506003544211156105d757426003546040517f950a642d0000000000000000000000000000000000000000000000000000000081526004016105ce92919061169c565b60405180910390fd5b600254811161062157806002546040517f201521eb00000000000000000000000000000000000000000000000000000000815260040161061892919061169c565b60405180910390fd5b6106ae600460009054906101000a900473ffffffffffffffffffffffffffffffffffffffff1660056000600460009054906101000a900473ffffffffffffffffffffffffffffffffffffffff1673ffffffffffffffffffffffffffffffffffffffff1673ffffffffffffffffffffffffffffffffffffffff16815260200190815260200160002054610d3b565b8060028190555033600460006101000a81548173ffffffffffffffffffffffffffffffffffffffff021916908373ffffffffffffffffffffffffffffffffffffffff16021790555080600560003373ffffffffffffffffffffffffffffffffffffffff1673ffffffffffffffffffffffffffffffffffffffff168152602001908152602001600020600082825461074591906116f4565b92505081905550600660405180604001604052803373ffffffffffffffffffffffffffffffffffffffff16815260200183815250908060018154018082558091505060019003906000526020600020906002020160009091909190915060008201518160000160006101000a81548173ffffffffffffffffffffffffffffffffffffffff021916908373ffffffffffffffffffffffffffffffffffffffff1602179055506020820151816001015550507f90c92f2d4052ed516f2beb1265c36e62af39eb7aaa59cb7595335ce67dc8b96c3382426040516108289392919061174a565b60405180910390a150565b6006818154811061084357600080fd5b90600052602060002090600202016000915090508060000160009054906101000a900473ffffffffffffffffffffffffffffffffffffffff16908060010154905082565b7f000000000000000000000000000000000000000000000000000000000000000081565b60035481565b600047905090565b60008060008054906101000a900473ffffffffffffffffffffffffffffffffffffffff1673ffffffffffffffffffffffffffffffffffffffff163373ffffffffffffffffffffffffffffffffffffffff161461094a576040517f08c379a0000000000000000000000000000000000000000000000000000000008152600401610941906117cd565b60405180910390fd5b600460149054906101000a900460ff16610999576040517f08c379a00000000000000000000000000000000000000000000000000000000081526004016109909061167c565b60405180910390fd5b6000600460146101000a81548160ff0219169083151502179055506109bc610ef4565b50600460009054906101000a900473ffffffffffffffffffffffffffffffffffffffff16915060025490507f7d7570b046e5ead3a4f3fbc9fa2445113625a1e79823776146316bafed6b8cc58282604051610a1892919061147a565b60405180910390a19091565b60003373ffffffffffffffffffffffffffffffffffffffff1631905090565b60008054906101000a900473ffffffffffffffffffffffffffffffffffffffff1673ffffffffffffffffffffffffffffffffffffffff163373ffffffffffffffffffffffffffffffffffffffff1614610ad1576040517f08c379a0000000000000000000000000000000000000000000000000000000008152600401610ac8906117cd565b60405180910390fd5b600460149054906101000a900460ff1615610b21576040517f08c379a0000000000000000000000000000000000000000000000000000000008152600401610b1890611839565b60405180910390fd5b6001600460146101000a81548160ff0219169083151502179055508042610b4891906116f4565b60038190555081600181905550816002819055507f000000000000000000000000000000000000000000000000000000000000000073ffffffffffffffffffffffffffffffffffffffff166323b872dd60008054906101000a900473ffffffffffffffffffffffffffffffffffffffff16307f00000000000000000000000000000000000000000000000000000000000000006040518463ffffffff1660e01b8152600401610bf99392919061187a565b600060405180830381600087803b158015610c1357600080fd5b505af1158015610c27573d6000803e3d6000fd5b505050507f5a7d5f50ab70a39d193bf53f0fb995377776df93bb6fdcf1cd1868b7e0dd44ee60015482604051610c5e92919061169c565b60405180910390a15050565b600460009054906101000a900473ffffffffffffffffffffffffffffffffffffffff1681565b600460149054906101000a900460ff1681565b6000600460149054906101000a900460ff16905090565b60056020528060005260406000206000915090505481565b60015481565b7f000000000000000000000000000000000000000000000000000000000000000081565b60025481565b6000806000429050806003541115610d2d5780600354610d2291906118b1565b925060019150610d36565b60009250600091505b509091565b600073ffffffffffffffffffffffffffffffffffffffff16600460009054906101000a900473ffffffffffffffffffffffffffffffffffffffff1673ffffffffffffffffffffffffffffffffffffffff1614158015610dd9575080600560008473ffffffffffffffffffffffffffffffffffffffff1673ffffffffffffffffffffffffffffffffffffffff1681526020019081526020016000205410155b15610ef05760008273ffffffffffffffffffffffffffffffffffffffff166108fc839081150290604051600060405180830381858888f19350505050905080610e5c577fc67b6758c6fb5aa458b455573fbec19dd844cee69f1e586762a4df66a5733a9c838342604051610e4f9392919061174a565b60405180910390a1610eee565b81600560008573ffffffffffffffffffffffffffffffffffffffff1673ffffffffffffffffffffffffffffffffffffffff1681526020019081526020016000206000828254610eab91906118b1565b925050819055507f8aa85d7d9e6805e875d0a80d52259fa91fabab13705e58af3624efadc6c41e1d838342604051610ee59392919061174a565b60405180910390a15b505b5050565b600080600090505b6006805490508110156111cb57600060068281548110610f1f57610f1e6118e5565b5b90600052602060002090600202019050600460009054906101000a900473ffffffffffffffffffffffffffffffffffffffff1673ffffffffffffffffffffffffffffffffffffffff168160000160009054906101000a900473ffffffffffffffffffffffffffffffffffffffff1673ffffffffffffffffffffffffffffffffffffffff16146111b75760008160000160009054906101000a900473ffffffffffffffffffffffffffffffffffffffff1673ffffffffffffffffffffffffffffffffffffffff166108fc83600101549081150290604051600060405180830381858888f19350505050905080156111b5578160010154600560008460000160009054906101000a900473ffffffffffffffffffffffffffffffffffffffff1673ffffffffffffffffffffffffffffffffffffffff1673ffffffffffffffffffffffffffffffffffffffff168152602001908152602001600020600082825461108691906118b1565b925050819055506000600560008460000160009054906101000a900473ffffffffffffffffffffffffffffffffffffffff1673ffffffffffffffffffffffffffffffffffffffff1673ffffffffffffffffffffffffffffffffffffffff16815260200190815260200160002054036111b457600560008360000160009054906101000a900473ffffffffffffffffffffffffffffffffffffffff1673ffffffffffffffffffffffffffffffffffffffff1673ffffffffffffffffffffffffffffffffffffffff1681526020019081526020016000206000905560068381548110611173576111726118e5565b5b9060005260206000209060020201600080820160006101000a81549073ffffffffffffffffffffffffffffffffffffffff0219169055600182016000905550505b5b505b5080806111c390611914565b915050610efc565b506001905090565b600082825260208201905092915050565b7f5061796d656e742072656a656374656420666f72206c61636b206f662062616c60008201527f616e636500000000000000000000000000000000000000000000000000000000602082015250565b60006112406024836111d3565b915061124b826111e4565b604082019050919050565b6000602082019050818103600083015261126f81611233565b9050919050565b600073ffffffffffffffffffffffffffffffffffffffff82169050919050565b60006112a182611276565b9050919050565b6112b181611296565b82525050565b6000819050919050565b6112ca816112b7565b82525050565b7f726563656976652066756e6374696f6e00000000000000000000000000000000600082015250565b60006113066010836111d3565b9150611311826112d0565b602082019050919050565b600060608201905061133160008301856112a8565b61133e60208301846112c1565b818103604083015261134f816112f9565b90509392505050565b7f66616c6c6261636b2066756e6374696f6e000000000000000000000000000000600082015250565b600061138e6011836111d3565b915061139982611358565b602082019050919050565b60006060820190506113b960008301856112a8565b6113c660208301846112c1565b81810360408301526113d781611381565b90509392505050565b60006113eb82611276565b9050919050565b6113fb816113e0565b82525050565b600060208201905061141660008301846113f2565b92915050565b600080fd5b61142a816112b7565b811461143557600080fd5b50565b60008135905061144781611421565b92915050565b6000602082840312156114635761146261141c565b5b600061147184828501611438565b91505092915050565b600060408201905061148f60008301856112a8565b61149c60208301846112c1565b9392505050565b6000819050919050565b60006114c86114c36114be84611276565b6114a3565b611276565b9050919050565b60006114da826114ad565b9050919050565b60006114ec826114cf565b9050919050565b6114fc816114e1565b82525050565b600060208201905061151760008301846114f3565b92915050565b600060208201905061153260008301846112c1565b92915050565b6000806040838503121561154f5761154e61141c565b5b600061155d85828601611438565b925050602061156e85828601611438565b9150509250929050565b60008115159050919050565b61158d81611578565b82525050565b60006020820190506115a86000830184611584565b92915050565b6115b781611296565b81146115c257600080fd5b50565b6000813590506115d4816115ae565b92915050565b6000602082840312156115f0576115ef61141c565b5b60006115fe848285016115c5565b91505092915050565b600060408201905061161c60008301856112c1565b6116296020830184611584565b9392505050565b7f41756374696f6e2068617320656e646564000000000000000000000000000000600082015250565b60006116666011836111d3565b915061167182611630565b602082019050919050565b6000602082019050818103600083015261169581611659565b9050919050565b60006040820190506116b160008301856112c1565b6116be60208301846112c1565b9392505050565b7f4e487b7100000000000000000000000000000000000000000000000000000000600052601160045260246000fd5b60006116ff826112b7565b915061170a836112b7565b9250827fffffffffffffffffffffffffffffffffffffffffffffffffffffffffffffffff0382111561173f5761173e6116c5565b5b828201905092915050565b600060608201905061175f60008301866112a8565b61176c60208301856112c1565b61177960408301846112c1565b949350505050565b7f4e6f742073656c6c657200000000000000000000000000000000000000000000600082015250565b60006117b7600a836111d3565b91506117c282611781565b602082019050919050565b600060208201905081810360008301526117e6816117aa565b9050919050565b7f416c726561647920537461727465640000000000000000000000000000000000600082015250565b6000611823600f836111d3565b915061182e826117ed565b602082019050919050565b6000602082019050818103600083015261185281611816565b9050919050565b6000611864826114cf565b9050919050565b61187481611859565b82525050565b600060608201905061188f600083018661186b565b61189c60208301856112a8565b6118a960408301846112c1565b949350505050565b60006118bc826112b7565b91506118c7836112b7565b9250828210156118da576118d96116c5565b5b828203905092915050565b7f4e487b7100000000000000000000000000000000000000000000000000000000600052603260045260246000fd5b600061191f826112b7565b91507fffffffffffffffffffffffffffffffffffffffffffffffffffffffffffffffff8203611951576119506116c5565b5b60018201905091905056fea2646970667358221220b21829f9a6f0daef5762081441dc4696040caaafd8aa8b71c423789423a8540c64736f6c634300080f0033",
  "immutableReferences": {
    "14": [
      {
        "length": 32,
        "start": 2185
      },
      {
        "length": 32,
        "start": 2910
      }
    ],
    "16": [
      {
        "length": 32,
        "start": 3004
      },
      {
        "length": 32,
        "start": 3290
      }
    ]
  },
  "source": "// SPDX-License-Identifier: MIT\npragma solidity 0.8.15;\n\ninterface IERC721 {\n    function transferFrom(address from, address to, uint nftId) external;\n}\ncontract Auction {\n    IERC721 public immutable nft;\n    uint public immutable nftId;\n\n    address payable public seller;\n    uint256 public startingBid;\n    uint256 public currentBid;\n    uint256 public auctionEndTime;\n    address payable public  highestBidder;\n    bool public auctionActive;\n\n    mapping(address => uint256) public bidderToBid;\n\n    Bid[] public bids;\n\n    struct Bid {\n        address bidder;\n        uint256 bid;\n    }\n\n    error InsufficientBidAmount(uint256 bidAmount, uint256 currentBid);\n    error AuctionExpired(uint256 currentTime, uint256 auctionEndTime);\n    error InsufficientFunds(uint256 bidAmount, uint256 currentBalance);\n\n    \n    \n    event Start(uint startingBid, uint duration);\n    event BidAccepted(address bidder, uint256 amount, uint256 bidTime);\n    event BidNotAccepted(address bidder, uint256 amount, uint256 bidTime);\n\n    event LosingBidReturned(address returnedTo, uint amount, uint256 returnTime);\n    event LosingBidNotReturned(address notReturnedTo, uint amount, uint256 notReturnTime);\n\n    event PaymentReceived(address sender, uint256 amount, string processedBy);\n\n    event AttemptingPaymentThatWillFail(\n        address sender,\n        uint256 amount,\n        string processedBy\n    );\n    event End(address winner, uint winningBid );\n\n    modifier onlySeller() {\n        require(msg.sender == seller, \"Not seller\");\n        _;\n    }\n\n    modifier onlySufficientBalance(address _sender, uint256 _amount) {\n        require(\n            msg.sender.balance >= msg.value,\n            \"Payment rejected for lack of balance\"\n        );\n        _;\n    }\n    modifier onlyAuctionActive() {\n        require(auctionActive, \"Auction has ended\");\n        _;\n    }\n\n    constructor(address _nft, uint _nftId) {\n        \n        nft = IERC721(_nft);\n        nftId = _nftId;\n\n        seller = payable(msg.sender);\n\n    }\n\n    function start(uint256 _startingBid, uint256 _auctionDuration) external onlySeller {\n        require(!auctionActive, \"Already Started\");\n\n        auctionActive = true;\n        auctionEndTime = block.timestamp + _auctionDuration;\n        startingBid = _startingBid;\n        currentBid = _startingBid;\n\n        // Transfer ownership of nft to this contract, so that it can sell it\n        nft.transferFrom(seller, address(this), nftId);\n\n        emit Start(startingBid, _auctionDuration);\n    }\n\n    function auctionStatus() external view returns (bool) {\n        return auctionActive;\n    }\n\n    /* \n        @dev \n            receive bid amount provided \n                bid is > current bid\n                auction has not ended\n    */\n    function bid() external payable onlyAuctionActive {\n        uint256 _bidAmount = msg.value;\n\n        if (!(block.timestamp <= auctionEndTime)) {\n            revert AuctionExpired({\n                currentTime: block.timestamp,\n                auctionEndTime: auctionEndTime\n            });\n        }\n\n        if (!(_bidAmount > currentBid)) {\n            revert InsufficientBidAmount({\n                bidAmount: _bidAmount,\n                currentBid: currentBid\n            });\n        }\n\n        // Reduce prior bid liability\n        _returnOldBid(highestBidder, bidderToBid[highestBidder]);\n        \n\n        // Bid accepted\n        currentBid = _bidAmount;\n        highestBidder = payable(msg.sender);\n\n        // Add to mapping\n        bidderToBid[msg.sender] += _bidAmount;\n\n        // Add to array as Struct\n        bids.push(Bid(msg.sender, _bidAmount));\n\n        emit BidAccepted(msg.sender, _bidAmount, block.timestamp);\n    }\n\n    function _returnOldBid (address _priorBidder, uint _priorBidAmount) internal {\n        // Send back previous bids to previous highest bidder if not address(0)\n        if (highestBidder != address(0) && bidderToBid[_priorBidder] >= _priorBidAmount){\n\n            // Todo: should protect against reentrancy!!\n            bool success = payable(_priorBidder).send(_priorBidAmount);\n            if (!success) {\n                // Do not reduce liability\n                emit LosingBidNotReturned(_priorBidder, _priorBidAmount, block.timestamp);\n            } else {\n                // Reduce liability\n                bidderToBid[_priorBidder] -= _priorBidAmount; // reduce bid liability (s/b zero after)\n                emit LosingBidReturned(_priorBidder, _priorBidAmount, block.timestamp);\n            }\n        }\n    }\n\n    function endBid()\n        external\n        onlySeller\n        onlyAuctionActive\n        returns (address _winner, uint256 _winningBid)\n    {\n        auctionActive = false;\n        returnLosingBids();\n        _winner = highestBidder;\n        _winningBid = currentBid;\n\n        emit End(_winner, _winningBid);\n    }\n\n    function returnLosingBids() internal returns (bool) {\n        for (uint256 i = 0; i < bids.length; i++) {\n            Bid storage _bid = bids[i];\n            if (_bid.bidder != highestBidder) {\n                bool successfulSend = payable(_bid.bidder).send(_bid.bid);\n                if (successfulSend) {\n                    // Reduce amount bid by this address\n                    bidderToBid[_bid.bidder] -= _bid.bid;\n\n                    // Delete mapping if address contains 0 balance\n                    if (bidderToBid[_bid.bidder] == 0) {\n                        delete bidderToBid[_bid.bidder];\n                        // Code to remove struct from array if it no longer valuable\n                        // TBD, as it may be valuable for historical and reporting purposes\n                        delete bids[i];\n                    }\n                }\n            }\n        }\n        return true;\n    }\n\n    function senderBalance() external view returns (uint256) {\n        return msg.sender.balance;\n    }\n\n    function contractBalance() external view returns (uint256) {\n        return address(this).balance;\n    }\n\n    function auctionTimeRemaining()\n        external\n        view\n        returns (uint256 _auctionTimeRemaining, bool _auctionActive)\n    {\n        uint256 _currentTime = block.timestamp;\n        if (auctionEndTime > _currentTime) {\n            _auctionTimeRemaining = auctionEndTime - _currentTime;\n            _auctionActive = true;\n        } else {\n            _auctionTimeRemaining = 0;\n            _auctionActive = false;\n        }\n        return (_auctionTimeRemaining, _auctionActive);\n    }\n\n    receive() external payable onlySufficientBalance(msg.sender, msg.value) {\n        emit PaymentReceived(msg.sender, msg.value, \"receive function\");\n    }\n\n    fallback() external payable onlySufficientBalance(msg.sender, msg.value) {\n        emit PaymentReceived(msg.sender, msg.value, \"fallback function\");\n    }\n}\n",
  "sourcePath": "/home/rick/projects/blockchain/ethereum/solidity-auction/contracts/Auction.sol",
  "compiler": {
    "name": "solc",
    "version": "0.8.15+commit.e14f2714.Emscripten.clang"
  },
  "schemaVersion": "3.4.7",
  "updatedAt": "2022-07-16T01:03:53.133Z",
  "networkType": "ethereum",
  "devdoc": {
    "kind": "dev",
    "methods": {},
    "version": 1
  },
  "userdoc": {
    "kind": "user",
    "methods": {},
    "version": 1
  }
}