{
  "contractName": "Nft",
  "abi": [
    {
      "anonymous": false,
      "inputs": [
        {
          "indexed": true,
          "internalType": "address",
          "name": "owner",
          "type": "address"
        },
        {
          "indexed": true,
          "internalType": "address",
          "name": "approved",
          "type": "address"
        },
        {
          "indexed": true,
          "internalType": "uint256",
          "name": "tokenId",
          "type": "uint256"
        }
      ],
      "name": "Approval",
      "type": "event"
    },
    {
      "anonymous": false,
      "inputs": [
        {
          "indexed": true,
          "internalType": "address",
          "name": "owner",
          "type": "address"
        },
        {
          "indexed": true,
          "internalType": "address",
          "name": "operator",
          "type": "address"
        },
        {
          "indexed": false,
          "internalType": "bool",
          "name": "approved",
          "type": "bool"
        }
      ],
      "name": "ApprovalForAll",
      "type": "event"
    },
    {
      "anonymous": false,
      "inputs": [
        {
          "indexed": true,
          "internalType": "address",
          "name": "from",
          "type": "address"
        },
        {
          "indexed": true,
          "internalType": "address",
          "name": "to",
          "type": "address"
        },
        {
          "indexed": true,
          "internalType": "uint256",
          "name": "tokenId",
          "type": "uint256"
        }
      ],
      "name": "Transfer",
      "type": "event"
    },
    {
      "inputs": [
        {
          "internalType": "bytes4",
          "name": "interfaceId",
          "type": "bytes4"
        }
      ],
      "name": "supportsInterface",
      "outputs": [
        {
          "internalType": "bool",
          "name": "",
          "type": "bool"
        }
      ],
      "stateMutability": "pure",
      "type": "function",
      "constant": true
    },
    {
      "inputs": [
        {
          "internalType": "address",
          "name": "owner",
          "type": "address"
        }
      ],
      "name": "balanceOf",
      "outputs": [
        {
          "internalType": "uint256",
          "name": "",
          "type": "uint256"
        }
      ],
      "stateMutability": "view",
      "type": "function",
      "constant": true
    },
    {
      "inputs": [
        {
          "internalType": "uint256",
          "name": "tokenId",
          "type": "uint256"
        }
      ],
      "name": "ownerOf",
      "outputs": [
        {
          "internalType": "address",
          "name": "owner",
          "type": "address"
        }
      ],
      "stateMutability": "view",
      "type": "function",
      "constant": true
    },
    {
      "inputs": [
        {
          "internalType": "address",
          "name": "owner",
          "type": "address"
        },
        {
          "internalType": "address",
          "name": "operator",
          "type": "address"
        }
      ],
      "name": "isApprovedForAll",
      "outputs": [
        {
          "internalType": "bool",
          "name": "",
          "type": "bool"
        }
      ],
      "stateMutability": "view",
      "type": "function",
      "constant": true
    },
    {
      "inputs": [
        {
          "internalType": "address",
          "name": "operator",
          "type": "address"
        },
        {
          "internalType": "bool",
          "name": "approved",
          "type": "bool"
        }
      ],
      "name": "setApprovalForAll",
      "outputs": [],
      "stateMutability": "nonpayable",
      "type": "function"
    },
    {
      "inputs": [
        {
          "internalType": "uint256",
          "name": "tokenId",
          "type": "uint256"
        }
      ],
      "name": "getApproved",
      "outputs": [
        {
          "internalType": "address",
          "name": "",
          "type": "address"
        }
      ],
      "stateMutability": "view",
      "type": "function",
      "constant": true
    },
    {
      "inputs": [
        {
          "internalType": "address",
          "name": "to",
          "type": "address"
        },
        {
          "internalType": "uint256",
          "name": "tokenId",
          "type": "uint256"
        }
      ],
      "name": "approve",
      "outputs": [],
      "stateMutability": "nonpayable",
      "type": "function"
    },
    {
      "inputs": [
        {
          "internalType": "address",
          "name": "from",
          "type": "address"
        },
        {
          "internalType": "address",
          "name": "to",
          "type": "address"
        },
        {
          "internalType": "uint256",
          "name": "tokenId",
          "type": "uint256"
        }
      ],
      "name": "transferFrom",
      "outputs": [],
      "stateMutability": "nonpayable",
      "type": "function"
    },
    {
      "inputs": [
        {
          "internalType": "address",
          "name": "from",
          "type": "address"
        },
        {
          "internalType": "address",
          "name": "to",
          "type": "address"
        },
        {
          "internalType": "uint256",
          "name": "tokenId",
          "type": "uint256"
        }
      ],
      "name": "safeTransferFrom",
      "outputs": [],
      "stateMutability": "nonpayable",
      "type": "function"
    },
    {
      "inputs": [
        {
          "internalType": "address",
          "name": "from",
          "type": "address"
        },
        {
          "internalType": "address",
          "name": "to",
          "type": "address"
        },
        {
          "internalType": "uint256",
          "name": "tokenId",
          "type": "uint256"
        },
        {
          "internalType": "bytes",
          "name": "_data",
          "type": "bytes"
        }
      ],
      "name": "safeTransferFrom",
      "outputs": [],
      "stateMutability": "nonpayable",
      "type": "function"
    },
    {
      "inputs": [
        {
          "internalType": "address",
          "name": "to",
          "type": "address"
        },
        {
          "internalType": "uint256",
          "name": "tokenId",
          "type": "uint256"
        }
      ],
      "name": "mint",
      "outputs": [],
      "stateMutability": "nonpayable",
      "type": "function"
    },
    {
      "inputs": [
        {
          "internalType": "uint256",
          "name": "tokenId",
          "type": "uint256"
        }
      ],
      "name": "burn",
      "outputs": [],
      "stateMutability": "nonpayable",
      "type": "function"
    }
  ],
  "bytecode": "0x608060405234801561001057600080fd5b50611dda806100206000396000f3fe608060405234801561001057600080fd5b50600436106100b45760003560e01c806342966c681161007157806342966c68146101895780636352211e146101a557806370a08231146101d5578063a22cb46514610205578063b88d4fde14610221578063e985e9c51461023d576100b4565b806301ffc9a7146100b9578063081812fc146100e9578063095ea7b31461011957806323b872dd1461013557806340c10f191461015157806342842e0e1461016d575b600080fd5b6100d360048036038101906100ce91906112df565b61026d565b6040516100e09190611327565b60405180910390f35b61010360048036038101906100fe9190611378565b61033f565b60405161011091906113e6565b60405180910390f35b610133600480360381019061012e919061142d565b61041c565b005b61014f600480360381019061014a919061146d565b610562565b005b61016b6004803603810190610166919061142d565b6105cb565b005b6101876004803603810190610182919061146d565b6107e2565b005b6101a3600480360381019061019e9190611378565b610802565b005b6101bf60048036038101906101ba9190611378565b610974565b6040516101cc91906113e6565b60405180910390f35b6101ef60048036038101906101ea91906114c0565b610a1f565b6040516101fc91906114fc565b60405180910390f35b61021f600480360381019061021a9190611543565b610ad6565b005b61023b600480360381019061023691906116c9565b610bd3565b005b6102576004803603810190610252919061174c565b610c3e565b6040516102649190611327565b60405180910390f35b60007f80ac58cd000000000000000000000000000000000000000000000000000000007bffffffffffffffffffffffffffffffffffffffffffffffffffffffff1916827bffffffffffffffffffffffffffffffffffffffffffffffffffffffff1916148061033857507f01ffc9a7000000000000000000000000000000000000000000000000000000007bffffffffffffffffffffffffffffffffffffffffffffffffffffffff1916827bffffffffffffffffffffffffffffffffffffffffffffffffffffffff1916145b9050919050565b60008073ffffffffffffffffffffffffffffffffffffffff1660008084815260200190815260200160002060009054906101000a900473ffffffffffffffffffffffffffffffffffffffff1673ffffffffffffffffffffffffffffffffffffffff16036103e1576040517f08c379a00000000000000000000000000000000000000000000000000000000081526004016103d8906117e9565b60405180910390fd5b6002600083815260200190815260200160002060009054906101000a900473ffffffffffffffffffffffffffffffffffffffff169050919050565b600080600083815260200190815260200160002060009054906101000a900473ffffffffffffffffffffffffffffffffffffffff1690508073ffffffffffffffffffffffffffffffffffffffff163373ffffffffffffffffffffffffffffffffffffffff1614806105135750600360008273ffffffffffffffffffffffffffffffffffffffff1673ffffffffffffffffffffffffffffffffffffffff16815260200190815260200160002060003373ffffffffffffffffffffffffffffffffffffffff1673ffffffffffffffffffffffffffffffffffffffff16815260200190815260200160002060009054906101000a900460ff165b610552576040517f08c379a000000000000000000000000000000000000000000000000000000000815260040161054990611855565b60405180910390fd5b61055d818484610cd2565b505050565b600061056d82610974565b905061057a813384610d84565b6105b9576040517f08c379a00000000000000000000000000000000000000000000000000000000081526004016105b0906118c1565b60405180910390fd5b6105c581858585610eb8565b50505050565b600073ffffffffffffffffffffffffffffffffffffffff168273ffffffffffffffffffffffffffffffffffffffff160361063a576040517f08c379a00000000000000000000000000000000000000000000000000000000081526004016106319061192d565b60405180910390fd5b600073ffffffffffffffffffffffffffffffffffffffff1660008083815260200190815260200160002060009054906101000a900473ffffffffffffffffffffffffffffffffffffffff1673ffffffffffffffffffffffffffffffffffffffff16146106db576040517f08c379a00000000000000000000000000000000000000000000000000000000081526004016106d290611999565b60405180910390fd5b60018060008473ffffffffffffffffffffffffffffffffffffffff1673ffffffffffffffffffffffffffffffffffffffff168152602001908152602001600020600082825461072a91906119e8565b925050819055508160008083815260200190815260200160002060006101000a81548173ffffffffffffffffffffffffffffffffffffffff021916908373ffffffffffffffffffffffffffffffffffffffff160217905550808273ffffffffffffffffffffffffffffffffffffffff16600073ffffffffffffffffffffffffffffffffffffffff167fddf252ad1be2c89b69c2b068fc378daa952ba7f163c4a11628f55a4df523b3ef60405160405180910390a45050565b6107fd83838360405180602001604052806000815250610bd3565b505050565b600061080d82610974565b90508073ffffffffffffffffffffffffffffffffffffffff163373ffffffffffffffffffffffffffffffffffffffff161461087d576040517f08c379a000000000000000000000000000000000000000000000000000000000815260040161087490611a8a565b60405180910390fd5b61088981600084610cd2565b60018060008373ffffffffffffffffffffffffffffffffffffffff1673ffffffffffffffffffffffffffffffffffffffff16815260200190815260200160002060008282546108d89190611aaa565b9250508190555060008083815260200190815260200160002060006101000a81549073ffffffffffffffffffffffffffffffffffffffff021916905581600073ffffffffffffffffffffffffffffffffffffffff168273ffffffffffffffffffffffffffffffffffffffff167fddf252ad1be2c89b69c2b068fc378daa952ba7f163c4a11628f55a4df523b3ef60405160405180910390a45050565b600080600083815260200190815260200160002060009054906101000a900473ffffffffffffffffffffffffffffffffffffffff169050600073ffffffffffffffffffffffffffffffffffffffff168173ffffffffffffffffffffffffffffffffffffffff1603610a1a576040517f08c379a0000000000000000000000000000000000000000000000000000000008152600401610a11906117e9565b60405180910390fd5b919050565b60008073ffffffffffffffffffffffffffffffffffffffff168273ffffffffffffffffffffffffffffffffffffffff1603610a8f576040517f08c379a0000000000000000000000000000000000000000000000000000000008152600401610a8690611b2a565b60405180910390fd5b600160008373ffffffffffffffffffffffffffffffffffffffff1673ffffffffffffffffffffffffffffffffffffffff168152602001908152602001600020549050919050565b80600360003373ffffffffffffffffffffffffffffffffffffffff1673ffffffffffffffffffffffffffffffffffffffff16815260200190815260200160002060008473ffffffffffffffffffffffffffffffffffffffff1673ffffffffffffffffffffffffffffffffffffffff16815260200190815260200160002060006101000a81548160ff0219169083151502179055508173ffffffffffffffffffffffffffffffffffffffff163373ffffffffffffffffffffffffffffffffffffffff167f17307eab39ab6107e8899845ad3d59bd9653f200f220920489ca2b5937696c3183604051610bc79190611327565b60405180910390a35050565b6000610bde83610974565b9050610beb813385610d84565b610c2a576040517f08c379a0000000000000000000000000000000000000000000000000000000008152600401610c21906118c1565b60405180910390fd5b610c3781868686866110ff565b5050505050565b6000600360008473ffffffffffffffffffffffffffffffffffffffff1673ffffffffffffffffffffffffffffffffffffffff16815260200190815260200160002060008373ffffffffffffffffffffffffffffffffffffffff1673ffffffffffffffffffffffffffffffffffffffff16815260200190815260200160002060009054906101000a900460ff16905092915050565b816002600083815260200190815260200160002060006101000a81548173ffffffffffffffffffffffffffffffffffffffff021916908373ffffffffffffffffffffffffffffffffffffffff160217905550808273ffffffffffffffffffffffffffffffffffffffff168473ffffffffffffffffffffffffffffffffffffffff167f8c5be1e5ebec7d5bd14f71427d1e84f3dd0314c0f7b2291e5b200ac8c7c3b92560405160405180910390a4505050565b60008373ffffffffffffffffffffffffffffffffffffffff168373ffffffffffffffffffffffffffffffffffffffff161480610e1e57508273ffffffffffffffffffffffffffffffffffffffff166002600084815260200190815260200160002060009054906101000a900473ffffffffffffffffffffffffffffffffffffffff1673ffffffffffffffffffffffffffffffffffffffff16145b80610eaf5750600360008573ffffffffffffffffffffffffffffffffffffffff1673ffffffffffffffffffffffffffffffffffffffff16815260200190815260200160002060008473ffffffffffffffffffffffffffffffffffffffff1673ffffffffffffffffffffffffffffffffffffffff16815260200190815260200160002060009054906101000a900460ff165b90509392505050565b8373ffffffffffffffffffffffffffffffffffffffff168373ffffffffffffffffffffffffffffffffffffffff1614610f26576040517f08c379a0000000000000000000000000000000000000000000000000000000008152600401610f1d90611b96565b60405180910390fd5b600073ffffffffffffffffffffffffffffffffffffffff168273ffffffffffffffffffffffffffffffffffffffff1603610f95576040517f08c379a0000000000000000000000000000000000000000000000000000000008152600401610f8c90611c02565b60405180910390fd5b610fa184600083610cd2565b60018060008573ffffffffffffffffffffffffffffffffffffffff1673ffffffffffffffffffffffffffffffffffffffff1681526020019081526020016000206000828254610ff09190611aaa565b9250508190555060018060008473ffffffffffffffffffffffffffffffffffffffff1673ffffffffffffffffffffffffffffffffffffffff168152602001908152602001600020600082825461104691906119e8565b925050819055508160008083815260200190815260200160002060006101000a81548173ffffffffffffffffffffffffffffffffffffffff021916908373ffffffffffffffffffffffffffffffffffffffff160217905550808273ffffffffffffffffffffffffffffffffffffffff168473ffffffffffffffffffffffffffffffffffffffff167fddf252ad1be2c89b69c2b068fc378daa952ba7f163c4a11628f55a4df523b3ef60405160405180910390a450505050565b61110b85858585610eb8565b6111178484848461115d565b611156576040517f08c379a000000000000000000000000000000000000000000000000000000000815260040161114d90611c6e565b60405180910390fd5b5050505050565b600061117e8473ffffffffffffffffffffffffffffffffffffffff16611260565b156112535763150b7a0260e01b7bffffffffffffffffffffffffffffffffffffffffffffffffffffffff19168473ffffffffffffffffffffffffffffffffffffffff1663150b7a02338887876040518563ffffffff1660e01b81526004016111e99493929190611d16565b6020604051808303816000875af1158015611208573d6000803e3d6000fd5b505050506040513d601f19601f8201168201806040525081019061122c9190611d77565b7bffffffffffffffffffffffffffffffffffffffffffffffffffffffff1916149050611258565b600190505b949350505050565b600080823b905060008111915050919050565b6000604051905090565b600080fd5b600080fd5b60007fffffffff0000000000000000000000000000000000000000000000000000000082169050919050565b6112bc81611287565b81146112c757600080fd5b50565b6000813590506112d9816112b3565b92915050565b6000602082840312156112f5576112f461127d565b5b6000611303848285016112ca565b91505092915050565b60008115159050919050565b6113218161130c565b82525050565b600060208201905061133c6000830184611318565b92915050565b6000819050919050565b61135581611342565b811461136057600080fd5b50565b6000813590506113728161134c565b92915050565b60006020828403121561138e5761138d61127d565b5b600061139c84828501611363565b91505092915050565b600073ffffffffffffffffffffffffffffffffffffffff82169050919050565b60006113d0826113a5565b9050919050565b6113e0816113c5565b82525050565b60006020820190506113fb60008301846113d7565b92915050565b61140a816113c5565b811461141557600080fd5b50565b60008135905061142781611401565b92915050565b600080604083850312156114445761144361127d565b5b600061145285828601611418565b925050602061146385828601611363565b9150509250929050565b6000806000606084860312156114865761148561127d565b5b600061149486828701611418565b93505060206114a586828701611418565b92505060406114b686828701611363565b9150509250925092565b6000602082840312156114d6576114d561127d565b5b60006114e484828501611418565b91505092915050565b6114f681611342565b82525050565b600060208201905061151160008301846114ed565b92915050565b6115208161130c565b811461152b57600080fd5b50565b60008135905061153d81611517565b92915050565b6000806040838503121561155a5761155961127d565b5b600061156885828601611418565b92505060206115798582860161152e565b9150509250929050565b600080fd5b600080fd5b6000601f19601f8301169050919050565b7f4e487b7100000000000000000000000000000000000000000000000000000000600052604160045260246000fd5b6115d68261158d565b810181811067ffffffffffffffff821117156115f5576115f461159e565b5b80604052505050565b6000611608611273565b905061161482826115cd565b919050565b600067ffffffffffffffff8211156116345761163361159e565b5b61163d8261158d565b9050602081019050919050565b82818337600083830152505050565b600061166c61166784611619565b6115fe565b90508281526020810184848401111561168857611687611588565b5b61169384828561164a565b509392505050565b600082601f8301126116b0576116af611583565b5b81356116c0848260208601611659565b91505092915050565b600080600080608085870312156116e3576116e261127d565b5b60006116f187828801611418565b945050602061170287828801611418565b935050604061171387828801611363565b925050606085013567ffffffffffffffff81111561173457611733611282565b5b6117408782880161169b565b91505092959194509250565b600080604083850312156117635761176261127d565b5b600061177185828601611418565b925050602061178285828601611418565b9150509250929050565b600082825260208201905092915050565b7f746f6b656e20646f65736e277420657869737400000000000000000000000000600082015250565b60006117d360138361178c565b91506117de8261179d565b602082019050919050565b60006020820190508181036000830152611802816117c6565b9050919050565b7f6e6f74206f776e6572206e6f7220617070726f76656420666f7220616c6c0000600082015250565b600061183f601e8361178c565b915061184a82611809565b602082019050919050565b6000602082019050818103600083015261186e81611832565b9050919050565b7f6e6f74206f776e6572206e6f7220617070726f76656400000000000000000000600082015250565b60006118ab60168361178c565b91506118b682611875565b602082019050919050565b600060208201905081810360008301526118da8161189e565b9050919050565b7f6d696e7420746f207a65726f2061646472657373000000000000000000000000600082015250565b600061191760148361178c565b9150611922826118e1565b602082019050919050565b600060208201905081810360008301526119468161190a565b9050919050565b7f746f6b656e20616c7265616479206d696e746564000000000000000000000000600082015250565b600061198360148361178c565b915061198e8261194d565b602082019050919050565b600060208201905081810360008301526119b281611976565b9050919050565b7f4e487b7100000000000000000000000000000000000000000000000000000000600052601160045260246000fd5b60006119f382611342565b91506119fe83611342565b9250827fffffffffffffffffffffffffffffffffffffffffffffffffffffffffffffffff03821115611a3357611a326119b9565b5b828201905092915050565b7f6e6f74206f776e6572206f6620746f6b656e0000000000000000000000000000600082015250565b6000611a7460128361178c565b9150611a7f82611a3e565b602082019050919050565b60006020820190508181036000830152611aa381611a67565b9050919050565b6000611ab582611342565b9150611ac083611342565b925082821015611ad357611ad26119b9565b5b828203905092915050565b7f6f776e6572203d207a65726f2061646472657373000000000000000000000000600082015250565b6000611b1460148361178c565b9150611b1f82611ade565b602082019050919050565b60006020820190508181036000830152611b4381611b07565b9050919050565b7f6e6f74206f776e65720000000000000000000000000000000000000000000000600082015250565b6000611b8060098361178c565b9150611b8b82611b4a565b602082019050919050565b60006020820190508181036000830152611baf81611b73565b9050919050565b7f7472616e7366657220746f20746865207a65726f206164647265737300000000600082015250565b6000611bec601c8361178c565b9150611bf782611bb6565b602082019050919050565b60006020820190508181036000830152611c1b81611bdf565b9050919050565b7f6e6f742045524337323152656365697665720000000000000000000000000000600082015250565b6000611c5860128361178c565b9150611c6382611c22565b602082019050919050565b60006020820190508181036000830152611c8781611c4b565b9050919050565b600081519050919050565b600082825260208201905092915050565b60005b83811015611cc8578082015181840152602081019050611cad565b83811115611cd7576000848401525b50505050565b6000611ce882611c8e565b611cf28185611c99565b9350611d02818560208601611caa565b611d0b8161158d565b840191505092915050565b6000608082019050611d2b60008301876113d7565b611d3860208301866113d7565b611d4560408301856114ed565b8181036060830152611d578184611cdd565b905095945050505050565b600081519050611d71816112b3565b92915050565b600060208284031215611d8d57611d8c61127d565b5b6000611d9b84828501611d62565b9150509291505056fea264697066735822122082c00ee5a614e12493a9b6cc0d0356197477f30ddc3335242a10c66d8e15eaa864736f6c634300080f0033",
  "immutableReferences": {},
  "source": "// SPDX-License-Identifier: MIT\npragma solidity ^0.8.6;\n\ninterface IERC165 {\n    function supportsInterface(bytes4 interfaceID) external view returns (bool);\n}\n\ninterface IERC721 is IERC165 {\n    function balanceOf(address owner) external view returns (uint balance);\n\n    function ownerOf(uint tokenId) external view returns (address owner);\n\n    function safeTransferFrom(\n        address from,\n        address to,\n        uint tokenId\n    ) external;\n\n    function safeTransferFrom(\n        address from,\n        address to,\n        uint tokenId,\n        bytes calldata data\n    ) external;\n\n    function transferFrom(\n        address from,\n        address to,\n        uint tokenId\n    ) external;\n\n    function approve(address to, uint tokenId) external;\n\n    function getApproved(uint tokenId) external view returns (address operator);\n\n    function setApprovalForAll(address operator, bool _approved) external;\n\n    function isApprovedForAll(address owner, address operator)\n        external\n        view\n        returns (bool);\n}\n\ninterface IERC721Receiver {\n    function onERC721Received(\n        address operator,\n        address from,\n        uint tokenId,\n        bytes calldata data\n    ) external returns (bytes4);\n}\n\ncontract Nft is IERC721 {\n    using Address for address;\n\n    event Transfer(address indexed from, address indexed to, uint indexed tokenId);\n    event Approval(\n        address indexed owner,\n        address indexed approved,\n        uint indexed tokenId\n    );\n    event ApprovalForAll(\n        address indexed owner,\n        address indexed operator,\n        bool approved\n    );\n\n    // Mapping from token ID to owner address\n    mapping(uint => address) private _owners;\n\n    // Mapping owner address to token count\n    mapping(address => uint) private _balances;\n\n    // Mapping from token ID to approved address\n    mapping(uint => address) private _tokenApprovals;\n\n    // Mapping from owner to operator approvals\n    mapping(address => mapping(address => bool)) private _operatorApprovals;\n\n    function supportsInterface(bytes4 interfaceId)\n        external\n        pure\n        override\n        returns (bool)\n    {\n        return\n            interfaceId == type(IERC721).interfaceId ||\n            interfaceId == type(IERC165).interfaceId;\n    }\n\n    function balanceOf(address owner) external view override returns (uint) {\n        require(owner != address(0), \"owner = zero address\");\n        return _balances[owner];\n    }\n\n    function ownerOf(uint tokenId) public view override returns (address owner) {\n        owner = _owners[tokenId];\n        require(owner != address(0), \"token doesn't exist\");\n    }\n\n    function isApprovedForAll(address owner, address operator)\n        external\n        view\n        override\n        returns (bool)\n    {\n        return _operatorApprovals[owner][operator];\n    }\n\n    function setApprovalForAll(address operator, bool approved) external override {\n        _operatorApprovals[msg.sender][operator] = approved;\n        emit ApprovalForAll(msg.sender, operator, approved);\n    }\n\n    function getApproved(uint tokenId) external view override returns (address) {\n        require(_owners[tokenId] != address(0), \"token doesn't exist\");\n        return _tokenApprovals[tokenId];\n    }\n\n    function _approve(\n        address owner,\n        address to,\n        uint tokenId\n    ) private {\n        _tokenApprovals[tokenId] = to;\n        emit Approval(owner, to, tokenId);\n    }\n\n    function approve(address to, uint tokenId) external override {\n        address owner = _owners[tokenId];\n        require(\n            msg.sender == owner || _operatorApprovals[owner][msg.sender],\n            \"not owner nor approved for all\"\n        );\n        _approve(owner, to, tokenId);\n    }\n\n    function _isApprovedOrOwner(\n        address owner,\n        address spender,\n        uint tokenId\n    ) private view returns (bool) {\n        return (spender == owner ||\n            _tokenApprovals[tokenId] == spender ||\n            _operatorApprovals[owner][spender]);\n    }\n\n    function _transfer(\n        address owner,\n        address from,\n        address to,\n        uint tokenId\n    ) private {\n        require(from == owner, \"not owner\");\n        require(to != address(0), \"transfer to the zero address\");\n\n        _approve(owner, address(0), tokenId);\n\n        _balances[from] -= 1;\n        _balances[to] += 1;\n        _owners[tokenId] = to;\n\n        emit Transfer(from, to, tokenId);\n    }\n\n    function transferFrom(\n        address from,\n        address to,\n        uint tokenId\n    ) external override {\n        address owner = ownerOf(tokenId);\n        require(\n            _isApprovedOrOwner(owner, msg.sender, tokenId),\n            \"not owner nor approved\"\n        );\n        _transfer(owner, from, to, tokenId);\n    }\n\n    function _checkOnERC721Received(\n        address from,\n        address to,\n        uint tokenId,\n        bytes memory _data\n    ) private returns (bool) {\n        if (to.isContract()) {\n            return\n                IERC721Receiver(to).onERC721Received(\n                    msg.sender,\n                    from,\n                    tokenId,\n                    _data\n                ) == IERC721Receiver.onERC721Received.selector;\n        } else {\n            return true;\n        }\n    }\n\n    function _safeTransfer(\n        address owner,\n        address from,\n        address to,\n        uint tokenId,\n        bytes memory _data\n    ) private {\n        _transfer(owner, from, to, tokenId);\n        require(_checkOnERC721Received(from, to, tokenId, _data), \"not ERC721Receiver\");\n    }\n\n    function safeTransferFrom(\n        address from,\n        address to,\n        uint tokenId,\n        bytes memory _data\n    ) public override {\n        address owner = ownerOf(tokenId);\n        require(\n            _isApprovedOrOwner(owner, msg.sender, tokenId),\n            \"not owner nor approved\"\n        );\n        _safeTransfer(owner, from, to, tokenId, _data);\n    }\n\n    function safeTransferFrom(\n        address from,\n        address to,\n        uint tokenId\n    ) external override {\n        safeTransferFrom(from, to, tokenId, \"\");\n    }\n\n    function mint(address to, uint tokenId) external {\n        require(to != address(0), \"mint to zero address\");\n        require(_owners[tokenId] == address(0), \"token already minted\");\n\n        _balances[to] += 1;\n        _owners[tokenId] = to;\n\n        emit Transfer(address(0), to, tokenId);\n    }\n\n    function burn(uint tokenId) external {\n        address owner = ownerOf(tokenId);\n        require(msg.sender == owner, \"not owner of token\");\n\n        _approve(owner, address(0), tokenId);\n\n        _balances[owner] -= 1;\n        delete _owners[tokenId];\n\n        emit Transfer(owner, address(0), tokenId);\n    }\n}\n\nlibrary Address {\n    function isContract(address account) internal view returns (bool) {\n        uint size;\n        assembly {\n            size := extcodesize(account)\n        }\n        return size > 0;\n    }\n}\n",
  "sourcePath": "/home/rick/projects/blockchain/ethereum/solidity-auction/contracts/Nft.sol",
  "compiler": {
    "name": "solc",
    "version": "0.8.15+commit.e14f2714.Emscripten.clang"
  },
  "schemaVersion": "3.4.7",
  "updatedAt": "2022-07-16T01:03:53.087Z",
  "networkType": "ethereum",
  "devdoc": {
    "kind": "dev",
    "methods": {},
    "version": 1
  },
  "userdoc": {
    "kind": "user",
    "methods": {},
    "version": 1
  }
}